{
  "contractName": "MultisigWallet",
  "abi": [
    {
      "inputs": [
        {
          "internalType": "address[]",
          "name": "_owners",
          "type": "address[]"
        },
        {
          "internalType": "uint256",
          "name": "_requiredApprovals",
          "type": "uint256"
        }
      ],
      "stateMutability": "nonpayable",
      "type": "constructor"
    },
    {
      "anonymous": false,
      "inputs": [
        {
          "indexed": false,
          "internalType": "address",
          "name": "_depositor",
          "type": "address"
        },
        {
          "indexed": false,
          "internalType": "uint256",
          "name": "_amount",
          "type": "uint256"
        }
      ],
      "name": "depositSent",
      "type": "event"
    },
    {
      "anonymous": false,
      "inputs": [
        {
          "indexed": false,
          "internalType": "address",
          "name": "_to",
          "type": "address"
        },
        {
          "indexed": false,
          "internalType": "uint256",
          "name": "_amount",
          "type": "uint256"
        },
        {
          "indexed": false,
          "internalType": "uint256",
          "name": "_txnId",
          "type": "uint256"
        }
      ],
      "name": "transactionSent",
      "type": "event"
    },
    {
      "inputs": [],
      "name": "deposit",
      "outputs": [],
      "stateMutability": "payable",
      "type": "function",
      "payable": true
    },
    {
      "inputs": [
        {
          "internalType": "address payable",
          "name": "_to",
          "type": "address"
        },
        {
          "internalType": "uint256",
          "name": "_amount",
          "type": "uint256"
        }
      ],
      "name": "requestTransfer",
      "outputs": [],
      "stateMutability": "nonpayable",
      "type": "function"
    },
    {
      "inputs": [
        {
          "internalType": "uint256",
          "name": "_txnId",
          "type": "uint256"
        }
      ],
      "name": "approve",
      "outputs": [],
      "stateMutability": "nonpayable",
      "type": "function"
    },
    {
      "inputs": [],
      "name": "getTransactionRequests",
      "outputs": [
        {
          "components": [
            {
              "internalType": "uint256",
              "name": "id",
              "type": "uint256"
            },
            {
              "internalType": "address payable",
              "name": "receiver",
              "type": "address"
            },
            {
              "internalType": "uint256",
              "name": "amount",
              "type": "uint256"
            },
            {
              "internalType": "uint256",
              "name": "approvals",
              "type": "uint256"
            },
            {
              "internalType": "bool",
              "name": "hasBeenSent",
              "type": "bool"
            }
          ],
          "internalType": "struct MultisigWallet.Transaction[]",
          "name": "",
          "type": "tuple[]"
        }
      ],
      "stateMutability": "view",
      "type": "function",
      "constant": true
    },
    {
      "inputs": [],
      "name": "getOwners",
      "outputs": [
        {
          "internalType": "address[]",
          "name": "",
          "type": "address[]"
        }
      ],
      "stateMutability": "view",
      "type": "function",
      "constant": true
    }
  ],
  "bytecode": "0x60806040523480156200001157600080fd5b5060405162000e3e38038062000e3e8339818101604052810190620000379190620001c8565b806001819055508160009080519060200190620000569291906200005f565b505050620002f9565b828054828255906000526020600020908101928215620000db579160200282015b82811115620000da5782518260006101000a81548173ffffffffffffffffffffffffffffffffffffffff021916908373ffffffffffffffffffffffffffffffffffffffff1602179055509160200191906001019062000080565b5b509050620000ea9190620000ee565b5090565b5b8082111562000109576000816000905550600101620000ef565b5090565b6000815190506200011e81620002c5565b92915050565b600082601f8301126200013657600080fd5b81516200014d620001478262000256565b62000222565b915081818352602084019350602081019050838560208402820111156200017357600080fd5b60005b83811015620001a757816200018c88826200010d565b84526020840193506020830192505060018101905062000176565b5050505092915050565b600081519050620001c281620002df565b92915050565b60008060408385031215620001dc57600080fd5b600083015167ffffffffffffffff811115620001f757600080fd5b620002058582860162000124565b92505060206200021885828601620001b1565b9150509250929050565b6000604051905081810181811067ffffffffffffffff821117156200024c576200024b620002c3565b5b8060405250919050565b600067ffffffffffffffff821115620002745762000273620002c3565b5b602082029050602081019050919050565b6000620002928262000299565b9050919050565b600073ffffffffffffffffffffffffffffffffffffffff82169050919050565b6000819050919050565bfe5b620002d08162000285565b8114620002dc57600080fd5b50565b620002ea81620002b9565b8114620002f657600080fd5b50565b610b3580620003096000396000f3fe60806040526004361061004a5760003560e01c8063a0e67e2b1461004f578063aa5fc7941461007a578063b25e2fe1146100a3578063b759f954146100ce578063d0e30db0146100f7575b600080fd5b34801561005b57600080fd5b50610064610101565b604051610071919061098b565b60405180910390f35b34801561008657600080fd5b506100a1600480360381019061009c9190610718565b61018f565b005b3480156100af57600080fd5b506100b8610387565b6040516100c591906109ad565b60405180910390f35b3480156100da57600080fd5b506100f560048036038101906100f09190610754565b610475565b005b6100ff61066c565b005b6060600080548060200260200160405190810160405280929190818152602001828054801561018557602002820191906000526020600020905b8160009054906101000a900473ffffffffffffffffffffffffffffffffffffffff1673ffffffffffffffffffffffffffffffffffffffff168152602001906001019080831161013b575b5050505050905090565b6000805b60008054905081101561021d573373ffffffffffffffffffffffffffffffffffffffff16600082815481106101c457fe5b9060005260206000200160009054906101000a900473ffffffffffffffffffffffffffffffffffffffff1673ffffffffffffffffffffffffffffffffffffffff16141561021057600191505b8080600101915050610193565b50600115158115151461022f57600080fd5b816000808154811061023d57fe5b9060005260206000200160009054906101000a900473ffffffffffffffffffffffffffffffffffffffff1673ffffffffffffffffffffffffffffffffffffffff1631101561028a57600080fd5b60026040518060a0016040528060028054905081526020018573ffffffffffffffffffffffffffffffffffffffff168152602001848152602001600181526020016000151581525090806001815401808255809150506001900390600052602060002090600502016000909190919091506000820151816000015560208201518160010160006101000a81548173ffffffffffffffffffffffffffffffffffffffff021916908373ffffffffffffffffffffffffffffffffffffffff160217905550604082015181600201556060820151816003015560808201518160040160006101000a81548160ff0219169083151502179055505050505050565b60606002805480602002602001604051908101604052809291908181526020016000905b8282101561046c57838290600052602060002090600502016040518060a0016040529081600082015481526020016001820160009054906101000a900473ffffffffffffffffffffffffffffffffffffffff1673ffffffffffffffffffffffffffffffffffffffff1673ffffffffffffffffffffffffffffffffffffffff16815260200160028201548152602001600382015481526020016004820160009054906101000a900460ff161515151581525050815260200190600101906103ab565b50505050905090565b61047d6106a7565b6002828154811061048a57fe5b90600052602060002090600502016040518060a0016040529081600082015481526020016001820160009054906101000a900473ffffffffffffffffffffffffffffffffffffffff1673ffffffffffffffffffffffffffffffffffffffff1673ffffffffffffffffffffffffffffffffffffffff16815260200160028201548152602001600382015481526020016004820160009054906101000a900460ff161515151581525050905060001515816080015115151461054957600080fd5b60001515600360003373ffffffffffffffffffffffffffffffffffffffff1673ffffffffffffffffffffffffffffffffffffffff168152602001908152602001600020600084815260200190815260200160002060009054906101000a900460ff161515146105b757600080fd5b600154816060015110610668576001816080019015159081151581525050806020015173ffffffffffffffffffffffffffffffffffffffff166108fc82604001519081150290604051600060405180830381858888f19350505050158015610623573d6000803e3d6000fd5b507f5f1b002fe8172629a623ae055f33484b4aa31ce1d47d69e699eaab8da575e05d816020015182604001518460405161065f93929190610954565b60405180910390a15b5050565b7fa6c464a951f5ad7a3adebbc18d08d7227b11ec77ef056ce49dc6e6e2bc0affea333460405161069d92919061092b565b60405180910390a1565b6040518060a0016040528060008152602001600073ffffffffffffffffffffffffffffffffffffffff16815260200160008152602001600081526020016000151581525090565b6000813590506106fd81610ad1565b92915050565b60008135905061071281610ae8565b92915050565b6000806040838503121561072b57600080fd5b6000610739858286016106ee565b925050602061074a85828601610703565b9150509250929050565b60006020828403121561076657600080fd5b600061077484828501610703565b91505092915050565b600061078983836107cb565b60208301905092915050565b60006107a183836108a5565b60a08301905092915050565b6107b681610a9b565b82525050565b6107c581610a53565b82525050565b6107d481610a41565b82525050565b60006107e5826109ef565b6107ef8185610a1f565b93506107fa836109cf565b8060005b8381101561082b578151610812888261077d565b975061081d83610a05565b9250506001810190506107fe565b5085935050505092915050565b6000610843826109fa565b61084d8185610a30565b9350610858836109df565b8060005b838110156108895781516108708882610795565b975061087b83610a12565b92505060018101905061085c565b5085935050505092915050565b61089f81610a65565b82525050565b60a0820160008201516108bb600085018261090d565b5060208201516108ce60208501826107bc565b5060408201516108e1604085018261090d565b5060608201516108f4606085018261090d565b5060808201516109076080850182610896565b50505050565b61091681610a91565b82525050565b61092581610a91565b82525050565b600060408201905061094060008301856107ad565b61094d602083018461091c565b9392505050565b600060608201905061096960008301866107ad565b610976602083018561091c565b610983604083018461091c565b949350505050565b600060208201905081810360008301526109a581846107da565b905092915050565b600060208201905081810360008301526109c78184610838565b905092915050565b6000819050602082019050919050565b6000819050602082019050919050565b600081519050919050565b600081519050919050565b6000602082019050919050565b6000602082019050919050565b600082825260208201905092915050565b600082825260208201905092915050565b6000610a4c82610a71565b9050919050565b6000610a5e82610a71565b9050919050565b60008115159050919050565b600073ffffffffffffffffffffffffffffffffffffffff82169050919050565b6000819050919050565b6000610aa682610aad565b9050919050565b6000610ab882610abf565b9050919050565b6000610aca82610a71565b9050919050565b610ada81610a53565b8114610ae557600080fd5b50565b610af181610a91565b8114610afc57600080fd5b5056fea26469706673582212201571fa11e42491a444fe0c2d3f2e193bd4a98b09c6bfdb70d33058516108526e64736f6c63430007050033",
  "immutableReferences": {},
  "source": "pragma solidity 0.7.5;\npragma abicoder v2;\n\n// test owner addresses array \n// [\"0x5B38Da6a701c568545dCfcB03FcB875f56beddC4\",\"0xAb8483F64d9C6d1EcF9b849Ae677dD3315835cb2\",\"0x4B20993Bc481177ec7E8f571ceCaE8A9e22C02db\"] \n\ncontract MultisigWallet {\n    address[] owners;\n    \n    uint requiredApprovals;\n    \n    event depositSent(address _depositor, uint _amount);\n    event transactionSent(address _to, uint _amount, uint _txnId);\n    \n    struct Transaction {\n        uint id;\n        address payable receiver;\n        uint amount;\n        uint approvals;\n        bool hasBeenSent;\n    }\n    \n    Transaction[] pendingTransactions;\n    \n    mapping(address => mapping(uint => bool)) approvals;\n    \n    constructor(address[] memory _owners, uint  _requiredApprovals){\n        requiredApprovals = _requiredApprovals;\n        owners = _owners;\n    }\n\n    modifier onlyOwners(){\n        bool owner = false;\n        for (uint i = 0; i < owners.length; i++) {\n            if (owners[i] == msg.sender) {\n                owner = true;\n            }\n        }\n        require(owner == true);\n        _;\n    }\n    \n    function deposit() public payable{\n        emit depositSent(msg.sender, msg.value);\n    }\n    \n    function requestTransfer(address payable _to, uint  _amount) public onlyOwners{\n        require(owners[0].balance >= _amount);\n\n        pendingTransactions.push(\n            Transaction(pendingTransactions.length, _to, _amount, 1, false)\n        );\n    }\n    \n    function approve(uint _txnId) public {\n        Transaction memory txn = pendingTransactions[_txnId];\n\n        require(txn.hasBeenSent == false);\n        require(approvals[msg.sender][_txnId] == false);\n\n        if (txn.approvals >= requiredApprovals){\n            txn.hasBeenSent = true;\n            txn.receiver.transfer(txn.amount);\n            emit transactionSent(txn.receiver, txn.amount, _txnId);\n        }\n    }\n\n    function getTransactionRequests() public view returns (Transaction[] memory){\n        return pendingTransactions;\n    }\n\n    function getOwners() public view returns (address[] memory){\n        return owners;\n    }\n}",
  "sourcePath": "/Users/autodidacticai/Code/learn/solidity/smart-contract-201-iot/multisig/contracts/MultisigWallet.sol",
  "compiler": {
    "name": "solc",
    "version": "0.7.5+commit.eb77ed08.Emscripten.clang"
  },
  "schemaVersion": "3.3.4",
  "updatedAt": "2021-03-14T10:08:21.504Z",
  "networkType": "ethereum",
  "devdoc": {
    "kind": "dev",
    "methods": {},
    "version": 1
  },
  "userdoc": {
    "kind": "user",
    "methods": {},
    "version": 1
  }
}